{
  "contractName": "Bytes",
  "abi": [
    {
      "constant": true,
      "inputs": [
        {
          "internalType": "bytes32",
          "name": "_hash",
          "type": "bytes32"
        }
      ],
      "name": "hash2base32",
      "outputs": [
        {
          "internalType": "string",
          "name": "_uintAsString",
          "type": "string"
        }
      ],
      "payable": false,
      "stateMutability": "pure",
      "type": "function"
    },
    {
      "constant": true,
      "inputs": [
        {
          "internalType": "uint256",
          "name": "num",
          "type": "uint256"
        }
      ],
      "name": "uint2str",
      "outputs": [
        {
          "internalType": "string",
          "name": "_uintAsString",
          "type": "string"
        }
      ],
      "payable": false,
      "stateMutability": "pure",
      "type": "function"
    },
    {
      "constant": true,
      "inputs": [
        {
          "internalType": "uint256",
          "name": "i",
          "type": "uint256"
        }
      ],
      "name": "uint2hexstr",
      "outputs": [
        {
          "internalType": "string",
          "name": "",
          "type": "string"
        }
      ],
      "payable": false,
      "stateMutability": "pure",
      "type": "function"
    }
  ],
  "bytecode": "0x6103bf610026600b82828239805160001a60731461001957fe5b30600052607381538281f3fe730000000000000000000000000000000000000000301460806040526004361061004b5760003560e01c80633c93d8be14610050578063a85796eb146100e2578063f76f950e146100ff575b600080fd5b61006d6004803603602081101561006657600080fd5b503561011c565b6040805160208082528351818301528351919283929083019185019080838360005b838110156100a757818101518382015260200161008f565b50505050905090810190601f1680156100d45780820380516001836020036101000a031916815260200191505b509250505060405180910390f35b61006d600480360360208110156100f857600080fd5b50356101ea565b61006d6004803603602081101561011557600080fd5b50356102d2565b60408051818152606081810183529190600f9083908360208201818038833901905050905060001983015b85156101a25785831660098111610164578060300160f81b61016c565b8060570160f81b5b83516000198401938591811061017e57fe5b60200101906001600160f81b031916908160001a905350600487901c965050610147565b600081126101df578151600019820191600360fc1b9184919081106101c357fe5b60200101906001600160f81b031916908160001a9053506101a2565b50925050505b919050565b60408051603480825260608281019093527f6162636465666768696a6b6c6d6e6f707172737475767778797a323334353637918491908490826020820181803883395091925085915050601c600285901b166020811061024657fe5b1a60f81b8183600190039350838151811061025d57fe5b60200101906001600160f81b031916908160001a9053506008830492505b81156102c95783602084066020811061029057fe5b1a60f81b818360019003935083815181106102a757fe5b60200101906001600160f81b031916908160001a90535060208304925061027b565b95945050505050565b6060816102f757506040805180820190915260018152600360fc1b60208201526101e5565b8160005b811561030f57600101600a820491506102fb565b6060816040519080825280601f01601f19166020018201604052801561033c576020820181803883390190505b50905060001982015b85156101df57600a860660300160f81b8282806001900393508151811061036857fe5b60200101906001600160f81b031916908160001a905350600a8604955061034556fea265627a7a72315820d5526737c07121fc883241f4630accddeb05f154f77ee9caf3f5e47d62ec0c3c64736f6c63430005100032",
  "source": "\npragma solidity = 0.5.16;\n\nlibrary Bytes {\n    /**\n     * @dev public function to convert bytes32 to string\n     * @param _hash bytes32 hash to convert\n     * @return string string convert from given bytes32\n     */\n    function hash2base32(bytes32 _hash) public pure returns(string memory _uintAsString) {\n        bytes32 base32Alphabet = 0x6162636465666768696A6B6C6D6E6F707172737475767778797A323334353637;\n        uint256 _i = uint256(_hash);\n        uint256 k = 52;\n        bytes memory bstr = new bytes(k);\n        bstr[--k] = base32Alphabet[uint8((_i % 8) << 2)]; // uint8 s = uint8((256 - skip) % 5);  // (_i % (2**s)) << (5-s)\n        _i /= 8;\n        while (k > 0) {\n            bstr[--k] = base32Alphabet[_i % 32];\n            _i /= 32;\n        }\n        return string(bstr);\n    }\n\n    /**\n     * @dev public function to convert uint256 to string\n     * @param num uint256 integer to convert\n     * @return string string convert from given uint256\n     */\n    function uint2str(uint256 num) public pure returns(string memory _uintAsString) {\n        if (num == 0) {\n            return \"0\";\n        }\n\n        uint256 j = num;\n        uint256 len;\n        while (j != 0) {\n            len++;\n            j /= 10;\n        }\n\n        bytes memory bstr = new bytes(len);\n        uint256 k = len - 1;\n        while (num != 0) {\n            bstr[k--] = bytes1(uint8(48 + (num % 10)));\n            num /= 10;\n        }\n\n        return string(bstr);\n    }\n\n    function uint2hexstr(uint i) public pure returns(string memory) {\n        uint length = 64;\n        uint mask = 15;\n        bytes memory bstr = new bytes(length);\n        int k = int(length - 1);\n        while (i != 0) {\n            uint curr = (i & mask);\n            bstr[uint(k--)] = curr > 9 ? byte(uint8(87 + curr)) : byte(uint8(48 + curr)); // 87 = 97 - 10\n            i = i >> 4;\n        }\n        while (k >= 0) {\n            bstr[uint(k--)] = byte(uint8(48));\n        }\n        return string(bstr);\n    }\n}",
  "sourcePath": "/Users/nathan/Workspace/animoca/f1dt/contracts_and_tokens_management/contracts/library/Bytes.sol",
  "compiler": {
    "name": "solc",
    "version": "0.5.16+commit.9c3226ce.Emscripten.clang"
  },
  "schemaVersion": "3.0.23",
  "updatedAt": "2020-07-02T20:02:48.216Z",
  "devdoc": {
    "methods": {
      "hash2base32(bytes32)": {
        "details": "public function to convert bytes32 to string",
        "params": {
          "_hash": "bytes32 hash to convert"
        },
        "return": "string string convert from given bytes32"
      },
      "uint2str(uint256)": {
        "details": "public function to convert uint256 to string",
        "params": {
          "num": "uint256 integer to convert"
        },
        "return": "string string convert from given uint256"
      }
    }
  },
  "userdoc": {
    "methods": {}
  }
}