{
  "contractName": "DeltaTimeInventory",
  "abi": [
    {
      "inputs": [
        {
          "internalType": "address",
          "name": "gasTokenAddress",
          "type": "address"
        },
        {
          "internalType": "address",
          "name": "payoutWallet",
          "type": "address"
        }
      ],
      "payable": false,
      "stateMutability": "nonpayable",
      "type": "constructor"
    },
    {
      "anonymous": false,
      "inputs": [
        {
          "indexed": true,
          "internalType": "address",
          "name": "_owner",
          "type": "address"
        },
        {
          "indexed": true,
          "internalType": "address",
          "name": "_approved",
          "type": "address"
        },
        {
          "indexed": true,
          "internalType": "uint256",
          "name": "_tokenId",
          "type": "uint256"
        }
      ],
      "name": "Approval",
      "type": "event"
    },
    {
      "anonymous": false,
      "inputs": [
        {
          "indexed": true,
          "internalType": "address",
          "name": "_owner",
          "type": "address"
        },
        {
          "indexed": true,
          "internalType": "address",
          "name": "_operator",
          "type": "address"
        },
        {
          "indexed": false,
          "internalType": "bool",
          "name": "_approved",
          "type": "bool"
        }
      ],
      "name": "ApprovalForAll",
      "type": "event"
    },
    {
      "anonymous": false,
      "inputs": [
        {
          "indexed": false,
          "internalType": "uint256[]",
          "name": "collectionIds",
          "type": "uint256[]"
        },
        {
          "indexed": false,
          "internalType": "address",
          "name": "pauser",
          "type": "address"
        }
      ],
      "name": "CollectionsPaused",
      "type": "event"
    },
    {
      "anonymous": false,
      "inputs": [
        {
          "indexed": false,
          "internalType": "uint256[]",
          "name": "collectionIds",
          "type": "uint256[]"
        },
        {
          "indexed": false,
          "internalType": "address",
          "name": "pauser",
          "type": "address"
        }
      ],
      "name": "CollectionsUnpaused",
      "type": "event"
    },
    {
      "anonymous": false,
      "inputs": [
        {
          "indexed": true,
          "internalType": "address",
          "name": "id",
          "type": "address"
        }
      ],
      "name": "FungibleCollection",
      "type": "event"
    },
    {
      "anonymous": false,
      "inputs": [
        {
          "indexed": true,
          "internalType": "address",
          "name": "account",
          "type": "address"
        }
      ],
      "name": "MinterAdded",
      "type": "event"
    },
    {
      "anonymous": false,
      "inputs": [
        {
          "indexed": true,
          "internalType": "address",
          "name": "account",
          "type": "address"
        }
      ],
      "name": "MinterRemoved",
      "type": "event"
    },
    {
      "anonymous": false,
      "inputs": [
        {
          "indexed": true,
          "internalType": "address",
          "name": "id",
          "type": "address"
        }
      ],
      "name": "NonFungibleCollection",
      "type": "event"
    },
    {
      "anonymous": false,
      "inputs": [
        {
          "indexed": true,
          "internalType": "address",
          "name": "previousOwner",
          "type": "address"
        },
        {
          "indexed": true,
          "internalType": "address",
          "name": "newOwner",
          "type": "address"
        }
      ],
      "name": "OwnershipTransferred",
      "type": "event"
    },
    {
      "anonymous": false,
      "inputs": [
        {
          "indexed": false,
          "internalType": "address",
          "name": "account",
          "type": "address"
        }
      ],
      "name": "Paused",
      "type": "event"
    },
    {
      "anonymous": false,
      "inputs": [
        {
          "indexed": true,
          "internalType": "address",
          "name": "account",
          "type": "address"
        }
      ],
      "name": "PauserAdded",
      "type": "event"
    },
    {
      "anonymous": false,
      "inputs": [
        {
          "indexed": true,
          "internalType": "address",
          "name": "account",
          "type": "address"
        }
      ],
      "name": "PauserRemoved",
      "type": "event"
    },
    {
      "anonymous": false,
      "inputs": [
        {
          "indexed": true,
          "internalType": "address",
          "name": "oldRelayHub",
          "type": "address"
        },
        {
          "indexed": true,
          "internalType": "address",
          "name": "newRelayHub",
          "type": "address"
        }
      ],
      "name": "RelayHubChanged",
      "type": "event"
    },
    {
      "anonymous": false,
      "inputs": [
        {
          "indexed": true,
          "internalType": "address",
          "name": "_from",
          "type": "address"
        },
        {
          "indexed": true,
          "internalType": "address",
          "name": "_to",
          "type": "address"
        },
        {
          "indexed": true,
          "internalType": "uint256",
          "name": "_tokenId",
          "type": "uint256"
        }
      ],
      "name": "Transfer",
      "type": "event"
    },
    {
      "anonymous": false,
      "inputs": [
        {
          "indexed": true,
          "internalType": "address",
          "name": "_operator",
          "type": "address"
        },
        {
          "indexed": true,
          "internalType": "address",
          "name": "_from",
          "type": "address"
        },
        {
          "indexed": true,
          "internalType": "address",
          "name": "_to",
          "type": "address"
        },
        {
          "indexed": false,
          "internalType": "uint256[]",
          "name": "_ids",
          "type": "uint256[]"
        },
        {
          "indexed": false,
          "internalType": "uint256[]",
          "name": "_values",
          "type": "uint256[]"
        }
      ],
      "name": "TransferBatch",
      "type": "event"
    },
    {
      "anonymous": false,
      "inputs": [
        {
          "indexed": true,
          "internalType": "address",
          "name": "_operator",
          "type": "address"
        },
        {
          "indexed": true,
          "internalType": "address",
          "name": "_from",
          "type": "address"
        },
        {
          "indexed": true,
          "internalType": "address",
          "name": "_to",
          "type": "address"
        },
        {
          "indexed": false,
          "internalType": "uint256",
          "name": "_id",
          "type": "uint256"
        },
        {
          "indexed": false,
          "internalType": "uint256",
          "name": "_value",
          "type": "uint256"
        }
      ],
      "name": "TransferSingle",
      "type": "event"
    },
    {
      "anonymous": false,
      "inputs": [
        {
          "indexed": false,
          "internalType": "string",
          "name": "_value",
          "type": "string"
        },
        {
          "indexed": true,
          "internalType": "uint256",
          "name": "_id",
          "type": "uint256"
        }
      ],
      "name": "URI",
      "type": "event"
    },
    {
      "anonymous": false,
      "inputs": [
        {
          "indexed": false,
          "internalType": "address",
          "name": "account",
          "type": "address"
        }
      ],
      "name": "Unpaused",
      "type": "event"
    },
    {
      "constant": true,
      "inputs": [],
      "name": "_gasPriceScaling",
      "outputs": [
        {
          "internalType": "uint256",
          "name": "",
          "type": "uint256"
        }
      ],
      "payable": false,
      "stateMutability": "view",
      "type": "function"
    },
    {
      "constant": true,
      "inputs": [],
      "name": "_gasToken",
      "outputs": [
        {
          "internalType": "contract IERC20",
          "name": "",
          "type": "address"
        }
      ],
      "payable": false,
      "stateMutability": "view",
      "type": "function"
    },
    {
      "constant": true,
      "inputs": [],
      "name": "_payoutWallet",
      "outputs": [
        {
          "internalType": "address",
          "name": "",
          "type": "address"
        }
      ],
      "payable": false,
      "stateMutability": "view",
      "type": "function"
    },
    {
      "constant": true,
      "inputs": [
        {
          "internalType": "address",
          "name": "",
          "type": "address"
        },
        {
          "internalType": "address",
          "name": "from",
          "type": "address"
        },
        {
          "internalType": "bytes",
          "name": "",
          "type": "bytes"
        },
        {
          "internalType": "uint256",
          "name": "transactionFee",
          "type": "uint256"
        },
        {
          "internalType": "uint256",
          "name": "gasPrice",
          "type": "uint256"
        },
        {
          "internalType": "uint256",
          "name": "",
          "type": "uint256"
        },
        {
          "internalType": "uint256",
          "name": "",
          "type": "uint256"
        },
        {
          "internalType": "bytes",
          "name": "",
          "type": "bytes"
        },
        {
          "internalType": "uint256",
          "name": "maxPossibleCharge",
          "type": "uint256"
        }
      ],
      "name": "acceptRelayedCall",
      "outputs": [
        {
          "internalType": "uint256",
          "name": "",
          "type": "uint256"
        },
        {
          "internalType": "bytes",
          "name": "",
          "type": "bytes"
        }
      ],
      "payable": false,
      "stateMutability": "view",
      "type": "function"
    },
    {
      "constant": false,
      "inputs": [
        {
          "internalType": "address",
          "name": "account",
          "type": "address"
        }
      ],
      "name": "addMinter",
      "outputs": [],
      "payable": false,
      "stateMutability": "nonpayable",
      "type": "function"
    },
    {
      "constant": false,
      "inputs": [
        {
          "internalType": "address",
          "name": "account",
          "type": "address"
        }
      ],
      "name": "addPauser",
      "outputs": [],
      "payable": false,
      "stateMutability": "nonpayable",
      "type": "function"
    },
    {
      "constant": false,
      "inputs": [
        {
          "internalType": "address",
          "name": "to",
          "type": "address"
        },
        {
          "internalType": "uint256",
          "name": "tokenId",
          "type": "uint256"
        }
      ],
      "name": "approve",
      "outputs": [],
      "payable": false,
      "stateMutability": "nonpayable",
      "type": "function"
    },
    {
      "constant": true,
      "inputs": [
        {
          "internalType": "address",
          "name": "tokenOwner",
          "type": "address"
        },
        {
          "internalType": "uint256",
          "name": "id",
          "type": "uint256"
        }
      ],
      "name": "balanceOf",
      "outputs": [
        {
          "internalType": "uint256",
          "name": "",
          "type": "uint256"
        }
      ],
      "payable": false,
      "stateMutability": "view",
      "type": "function"
    },
    {
      "constant": true,
      "inputs": [
        {
          "internalType": "address",
          "name": "tokenOwner",
          "type": "address"
        }
      ],
      "name": "balanceOf",
      "outputs": [
        {
          "internalType": "uint256",
          "name": "",
          "type": "uint256"
        }
      ],
      "payable": false,
      "stateMutability": "view",
      "type": "function"
    },
    {
      "constant": true,
      "inputs": [
        {
          "internalType": "address[]",
          "name": "tokenOwners",
          "type": "address[]"
        },
        {
          "internalType": "uint256[]",
          "name": "ids",
          "type": "uint256[]"
        }
      ],
      "name": "balanceOfBatch",
      "outputs": [
        {
          "internalType": "uint256[]",
          "name": "",
          "type": "uint256[]"
        }
      ],
      "payable": false,
      "stateMutability": "view",
      "type": "function"
    },
    {
      "constant": true,
      "inputs": [
        {
          "internalType": "uint256",
          "name": "id",
          "type": "uint256"
        }
      ],
      "name": "collectionOf",
      "outputs": [
        {
          "internalType": "uint256",
          "name": "",
          "type": "uint256"
        }
      ],
      "payable": false,
      "stateMutability": "view",
      "type": "function"
    },
    {
      "constant": true,
      "inputs": [
        {
          "internalType": "uint256",
          "name": "id",
          "type": "uint256"
        }
      ],
      "name": "exists",
      "outputs": [
        {
          "internalType": "bool",
          "name": "",
          "type": "bool"
        }
      ],
      "payable": false,
      "stateMutability": "view",
      "type": "function"
    },
    {
      "constant": true,
      "inputs": [
        {
          "internalType": "uint256",
          "name": "tokenId",
          "type": "uint256"
        }
      ],
      "name": "getApproved",
      "outputs": [
        {
          "internalType": "address",
          "name": "",
          "type": "address"
        }
      ],
      "payable": false,
      "stateMutability": "view",
      "type": "function"
    },
    {
      "constant": true,
      "inputs": [],
      "name": "getHubAddr",
      "outputs": [
        {
          "internalType": "address",
          "name": "",
          "type": "address"
        }
      ],
      "payable": false,
      "stateMutability": "view",
      "type": "function"
    },
    {
      "constant": true,
      "inputs": [
        {
          "internalType": "uint256",
          "name": "id",
          "type": "uint256"
        }
      ],
      "name": "idPaused",
      "outputs": [
        {
          "internalType": "bool",
          "name": "",
          "type": "bool"
        }
      ],
      "payable": false,
      "stateMutability": "view",
      "type": "function"
    },
    {
      "constant": true,
      "inputs": [
        {
          "internalType": "address",
          "name": "tokenOwner",
          "type": "address"
        },
        {
          "internalType": "address",
          "name": "operator",
          "type": "address"
        }
      ],
      "name": "isApprovedForAll",
      "outputs": [
        {
          "internalType": "bool",
          "name": "",
          "type": "bool"
        }
      ],
      "payable": false,
      "stateMutability": "view",
      "type": "function"
    },
    {
      "constant": true,
      "inputs": [
        {
          "internalType": "uint256",
          "name": "id",
          "type": "uint256"
        }
      ],
      "name": "isFungible",
      "outputs": [
        {
          "internalType": "bool",
          "name": "",
          "type": "bool"
        }
      ],
      "payable": false,
      "stateMutability": "view",
      "type": "function"
    },
    {
      "constant": true,
      "inputs": [
        {
          "internalType": "address",
          "name": "account",
          "type": "address"
        }
      ],
      "name": "isMinter",
      "outputs": [
        {
          "internalType": "bool",
          "name": "",
          "type": "bool"
        }
      ],
      "payable": false,
      "stateMutability": "view",
      "type": "function"
    },
    {
      "constant": true,
      "inputs": [],
      "name": "isOwner",
      "outputs": [
        {
          "internalType": "bool",
          "name": "",
          "type": "bool"
        }
      ],
      "payable": false,
      "stateMutability": "view",
      "type": "function"
    },
    {
      "constant": true,
      "inputs": [
        {
          "internalType": "address",
          "name": "account",
          "type": "address"
        }
      ],
      "name": "isPauser",
      "outputs": [
        {
          "internalType": "bool",
          "name": "",
          "type": "bool"
        }
      ],
      "payable": false,
      "stateMutability": "view",
      "type": "function"
    },
    {
      "constant": true,
      "inputs": [],
      "name": "owner",
      "outputs": [
        {
          "internalType": "address",
          "name": "",
          "type": "address"
        }
      ],
      "payable": false,
      "stateMutability": "view",
      "type": "function"
    },
    {
      "constant": true,
      "inputs": [
        {
          "internalType": "uint256",
          "name": "tokenId",
          "type": "uint256"
        }
      ],
      "name": "ownerOf",
      "outputs": [
        {
          "internalType": "address",
          "name": "",
          "type": "address"
        }
      ],
      "payable": false,
      "stateMutability": "view",
      "type": "function"
    },
    {
      "constant": false,
      "inputs": [],
      "name": "pause",
      "outputs": [],
      "payable": false,
      "stateMutability": "nonpayable",
      "type": "function"
    },
    {
      "constant": false,
      "inputs": [
        {
          "internalType": "uint256[]",
          "name": "collectionIds",
          "type": "uint256[]"
        }
      ],
      "name": "pauseCollections",
      "outputs": [],
      "payable": false,
      "stateMutability": "nonpayable",
      "type": "function"
    },
    {
      "constant": true,
      "inputs": [],
      "name": "paused",
      "outputs": [
        {
          "internalType": "bool",
          "name": "",
          "type": "bool"
        }
      ],
      "payable": false,
      "stateMutability": "view",
      "type": "function"
    },
    {
      "constant": false,
      "inputs": [
        {
          "internalType": "bytes",
          "name": "context",
          "type": "bytes"
        },
        {
          "internalType": "bool",
          "name": "success",
          "type": "bool"
        },
        {
          "internalType": "uint256",
          "name": "actualCharge",
          "type": "uint256"
        },
        {
          "internalType": "bytes32",
          "name": "preRetVal",
          "type": "bytes32"
        }
      ],
      "name": "postRelayedCall",
      "outputs": [],
      "payable": false,
      "stateMutability": "nonpayable",
      "type": "function"
    },
    {
      "constant": false,
      "inputs": [
        {
          "internalType": "bytes",
          "name": "context",
          "type": "bytes"
        }
      ],
      "name": "preRelayedCall",
      "outputs": [
        {
          "internalType": "bytes32",
          "name": "",
          "type": "bytes32"
        }
      ],
      "payable": false,
      "stateMutability": "nonpayable",
      "type": "function"
    },
    {
      "constant": true,
      "inputs": [],
      "name": "relayHubVersion",
      "outputs": [
        {
          "internalType": "string",
          "name": "",
          "type": "string"
        }
      ],
      "payable": false,
      "stateMutability": "view",
      "type": "function"
    },
    {
      "constant": false,
      "inputs": [],
      "name": "renounceMinter",
      "outputs": [],
      "payable": false,
      "stateMutability": "nonpayable",
      "type": "function"
    },
    {
      "constant": false,
      "inputs": [],
      "name": "renounceOwnership",
      "outputs": [],
      "payable": false,
      "stateMutability": "nonpayable",
      "type": "function"
    },
    {
      "constant": false,
      "inputs": [],
      "name": "renouncePauser",
      "outputs": [],
      "payable": false,
      "stateMutability": "nonpayable",
      "type": "function"
    },
    {
      "constant": false,
      "inputs": [
        {
          "internalType": "address",
          "name": "from",
          "type": "address"
        },
        {
          "internalType": "address",
          "name": "to",
          "type": "address"
        },
        {
          "internalType": "uint256[]",
          "name": "ids",
          "type": "uint256[]"
        },
        {
          "internalType": "uint256[]",
          "name": "values",
          "type": "uint256[]"
        },
        {
          "internalType": "bytes",
          "name": "data",
          "type": "bytes"
        }
      ],
      "name": "safeBatchTransferFrom",
      "outputs": [],
      "payable": false,
      "stateMutability": "nonpayable",
      "type": "function"
    },
    {
      "constant": false,
      "inputs": [
        {
          "internalType": "address",
          "name": "from",
          "type": "address"
        },
        {
          "internalType": "address",
          "name": "to",
          "type": "address"
        },
        {
          "internalType": "uint256",
          "name": "tokenId",
          "type": "uint256"
        }
      ],
      "name": "safeTransferFrom",
      "outputs": [],
      "payable": false,
      "stateMutability": "nonpayable",
      "type": "function"
    },
    {
      "constant": false,
      "inputs": [
        {
          "internalType": "address",
          "name": "from",
          "type": "address"
        },
        {
          "internalType": "address",
          "name": "to",
          "type": "address"
        },
        {
          "internalType": "uint256",
          "name": "tokenId",
          "type": "uint256"
        },
        {
          "internalType": "bytes",
          "name": "data",
          "type": "bytes"
        }
      ],
      "name": "safeTransferFrom",
      "outputs": [],
      "payable": false,
      "stateMutability": "nonpayable",
      "type": "function"
    },
    {
      "constant": false,
      "inputs": [
        {
          "internalType": "address",
          "name": "from",
          "type": "address"
        },
        {
          "internalType": "address",
          "name": "to",
          "type": "address"
        },
        {
          "internalType": "uint256",
          "name": "id",
          "type": "uint256"
        },
        {
          "internalType": "uint256",
          "name": "value",
          "type": "uint256"
        },
        {
          "internalType": "bytes",
          "name": "data",
          "type": "bytes"
        }
      ],
      "name": "safeTransferFrom",
      "outputs": [],
      "payable": false,
      "stateMutability": "nonpayable",
      "type": "function"
    },
    {
      "constant": false,
      "inputs": [
        {
          "internalType": "address",
          "name": "to",
          "type": "address"
        },
        {
          "internalType": "bool",
          "name": "approved",
          "type": "bool"
        }
      ],
      "name": "setApprovalForAll",
      "outputs": [],
      "payable": false,
      "stateMutability": "nonpayable",
      "type": "function"
    },
    {
      "constant": false,
      "inputs": [
        {
          "internalType": "uint256",
          "name": "gasPriceScaling",
          "type": "uint256"
        }
      ],
      "name": "setGasPrice",
      "outputs": [],
      "payable": false,
      "stateMutability": "nonpayable",
      "type": "function"
    },
    {
      "constant": false,
      "inputs": [
        {
          "internalType": "address",
          "name": "gasTokenAddress",
          "type": "address"
        }
      ],
      "name": "setGasToken",
      "outputs": [],
      "payable": false,
      "stateMutability": "nonpayable",
      "type": "function"
    },
    {
      "constant": false,
      "inputs": [
        {
          "internalType": "address",
          "name": "payoutWallet",
          "type": "address"
        }
      ],
      "name": "setPayoutWallet",
      "outputs": [],
      "payable": false,
      "stateMutability": "nonpayable",
      "type": "function"
    },
    {
      "constant": true,
      "inputs": [
        {
          "internalType": "bytes4",
          "name": "interfaceId",
          "type": "bytes4"
        }
      ],
      "name": "supportsInterface",
      "outputs": [
        {
          "internalType": "bool",
          "name": "",
          "type": "bool"
        }
      ],
      "payable": false,
      "stateMutability": "view",
      "type": "function"
    },
    {
      "constant": false,
      "inputs": [
        {
          "internalType": "address",
          "name": "from",
          "type": "address"
        },
        {
          "internalType": "address",
          "name": "to",
          "type": "address"
        },
        {
          "internalType": "uint256",
          "name": "tokenId",
          "type": "uint256"
        }
      ],
      "name": "transferFrom",
      "outputs": [],
      "payable": false,
      "stateMutability": "nonpayable",
      "type": "function"
    },
    {
      "constant": false,
      "inputs": [
        {
          "internalType": "address",
          "name": "newOwner",
          "type": "address"
        }
      ],
      "name": "transferOwnership",
      "outputs": [],
      "payable": false,
      "stateMutability": "nonpayable",
      "type": "function"
    },
    {
      "constant": false,
      "inputs": [],
      "name": "unpause",
      "outputs": [],
      "payable": false,
      "stateMutability": "nonpayable",
      "type": "function"
    },
    {
      "constant": false,
      "inputs": [
        {
          "internalType": "uint256[]",
          "name": "collectionIds",
          "type": "uint256[]"
        }
      ],
      "name": "unpauseCollections",
      "outputs": [],
      "payable": false,
      "stateMutability": "nonpayable",
      "type": "function"
    },
    {
      "constant": false,
      "inputs": [
        {
          "internalType": "uint256",
          "name": "amount",
          "type": "uint256"
        },
        {
          "internalType": "address payable",
          "name": "payee",
          "type": "address"
        }
      ],
      "name": "withdrawDeposits",
      "outputs": [],
      "payable": false,
      "stateMutability": "nonpayable",
      "type": "function"
    },
    {
      "constant": false,
      "inputs": [
        {
          "internalType": "uint256",
          "name": "collectionId",
          "type": "uint256"
        },
        {
          "internalType": "bytes32",
          "name": "byteUri",
          "type": "bytes32"
        }
      ],
      "name": "createCollection",
      "outputs": [],
      "payable": false,
      "stateMutability": "nonpayable",
      "type": "function"
    },
    {
      "constant": false,
      "inputs": [
        {
          "internalType": "address[]",
          "name": "to",
          "type": "address[]"
        },
        {
          "internalType": "uint256[]",
          "name": "ids",
          "type": "uint256[]"
        },
        {
          "internalType": "bytes32[]",
          "name": "uris",
          "type": "bytes32[]"
        },
        {
          "internalType": "uint256[]",
          "name": "values",
          "type": "uint256[]"
        },
        {
          "internalType": "bool",
          "name": "safe",
          "type": "bool"
        }
      ],
      "name": "batchMint",
      "outputs": [],
      "payable": false,
      "stateMutability": "nonpayable",
      "type": "function"
    },
    {
      "constant": false,
      "inputs": [
        {
          "internalType": "address",
          "name": "to",
          "type": "address"
        },
        {
          "internalType": "uint256",
          "name": "tokenId",
          "type": "uint256"
        },
        {
          "internalType": "bytes32",
          "name": "byteUri",
          "type": "bytes32"
        },
        {
          "internalType": "bool",
          "name": "safe",
          "type": "bool"
        }
      ],
      "name": "mintNonFungible",
      "outputs": [],
      "payable": false,
      "stateMutability": "nonpayable",
      "type": "function"
    },
    {
      "constant": false,
      "inputs": [
        {
          "internalType": "address",
          "name": "to",
          "type": "address"
        },
        {
          "internalType": "uint256",
          "name": "collection",
          "type": "uint256"
        },
        {
          "internalType": "uint256",
          "name": "value",
          "type": "uint256"
        }
      ],
      "name": "mintFungible",
      "outputs": [],
      "payable": false,
      "stateMutability": "nonpayable",
      "type": "function"
    },
    {
      "constant": false,
      "inputs": [
        {
          "internalType": "string",
          "name": "uriPrefix",
          "type": "string"
        }
      ],
      "name": "setUriPrefix",
      "outputs": [],
      "payable": false,
      "stateMutability": "nonpayable",
      "type": "function"
    },
    {
      "constant": false,
      "inputs": [
        {
          "internalType": "string",
          "name": "ipfsUriPrefix",
          "type": "string"
        }
      ],
      "name": "setIPFSUriPrefix",
      "outputs": [],
      "payable": false,
      "stateMutability": "nonpayable",
      "type": "function"
    },
    {
      "constant": false,
      "inputs": [
        {
          "internalType": "uint256",
          "name": "id",
          "type": "uint256"
        },
        {
          "internalType": "bytes32",
          "name": "byteUri",
          "type": "bytes32"
        }
      ],
      "name": "setURI",
      "outputs": [],
      "payable": false,
      "stateMutability": "nonpayable",
      "type": "function"
    },
    {
      "constant": false,
      "inputs": [],
      "name": "migrateToIPFS",
      "outputs": [],
      "payable": false,
      "stateMutability": "nonpayable",
      "type": "function"
    },
    {
      "constant": true,
      "inputs": [
        {
          "internalType": "uint256",
          "name": "id",
          "type": "uint256"
        }
      ],
      "name": "uri",
      "outputs": [
        {
          "internalType": "string",
          "name": "",
          "type": "string"
        }
      ],
      "payable": false,
      "stateMutability": "view",
      "type": "function"
    },
    {
      "constant": true,
      "inputs": [],
      "name": "name",
      "outputs": [
        {
          "internalType": "string",
          "name": "",
          "type": "string"
        }
      ],
      "payable": false,
      "stateMutability": "view",
      "type": "function"
    },
    {
      "constant": true,
      "inputs": [],
      "name": "symbol",
      "outputs": [
        {
          "internalType": "string",
          "name": "",
          "type": "string"
        }
      ],
      "payable": false,
      "stateMutability": "view",
      "type": "function"
    },
    {
      "constant": true,
      "inputs": [
        {
          "internalType": "uint256",
          "name": "tokenId",
          "type": "uint256"
        }
      ],
      "name": "tokenURI",
      "outputs": [
        {
          "internalType": "string",
          "name": "",
          "type": "string"
        }
      ],
      "payable": false,
      "stateMutability": "view",
      "type": "function"
    }
  ],
  "bytecode": "0x600980546001600160a01b03191673d216153c06e857cd7f72665e0af1d7d82172f4941790556103e8600d5560e06040526021608081815290620050c960a039805162000055916010916020909101906200051b565b5060408051808201909152600d8082526c2f697066732f6261666b72656960981b60209092019182526200008c916011916200051b565b503480156200009a57600080fd5b506040516200512c3803806200512c83398181016040526040811015620000c057600080fd5b5080516020918201516001600160e01b0319600555909182908290620000f8620000e9620001c9565b6001600160e01b036200020016565b506007805460ff191690556000620001186001600160e01b03620001c916565b600a80546001600160a01b0319166001600160a01b038316908117909155604051919250906000907f8be0079c531659141344cd1fd0a4f28419497f9722a3daafe3b4186f6b6457e0908290a3506200017a826001600160e01b036200025216565b6200018e816001600160e01b03620002c816565b50620001b79050620001a86001600160e01b03620001c916565b6001600160e01b036200035516565b5050600f805460ff19169055620005bd565b6009546000906001600160a01b03163314620001e7575033620001fd565b620001fa6001600160e01b03620003a716565b90505b90565b6200021b816006620003f460201b6200454d1790919060201c565b6040516001600160a01b038216907f6719d08c1888103bea251a4ed56406bd0c3e69723c8a1686e017e7bbe159b6f890600090a250565b620002656001600160e01b036200048116565b620002a6576040805162461bcd60e51b81526020600482018190526024820152600080516020620050ea833981519152604482015290519081900360640190fd5b600b80546001600160a01b0319166001600160a01b0392909216919091179055565b620002db6001600160e01b036200048116565b6200031c576040805162461bcd60e51b81526020600482018190526024820152600080516020620050ea833981519152604482015290519081900360640190fd5b6001600160a01b0381163014156200033357600080fd5b600c80546001600160a01b0319166001600160a01b0392909216919091179055565b6200037081600e620003f460201b6200454d1790919060201c565b6040516001600160a01b038216907f6ae172837ea30b801fbfcdd4108aa1d5bf8ff775444fd70256b44e6bf3dfc3f690600090a250565b600060606000368080601f0160208091040260200160405190810160405280939291908181526020018383808284376000920191909152505050503601516001600160a01b031692915050565b6200040982826001600160e01b03620004b216565b156200045c576040805162461bcd60e51b815260206004820152601f60248201527f526f6c65733a206163636f756e7420616c72656164792068617320726f6c6500604482015290519081900360640190fd5b6001600160a01b0316600090815260209190915260409020805460ff19166001179055565b600a546000906001600160a01b0316620004a36001600160e01b03620001c916565b6001600160a01b031614905090565b60006001600160a01b038216620004fb5760405162461bcd60e51b81526004018080602001828103825260228152602001806200510a6022913960400191505060405180910390fd5b506001600160a01b03166000908152602091909152604090205460ff1690565b828054600181600116156101000203166002900490600052602060002090601f016020900481019282601f106200055e57805160ff19168380011785556200058e565b828001600101855582156200058e579182015b828111156200058e57825182559160200191906001019062000571565b506200059c929150620005a0565b5090565b620001fd91905b808211156200059c5760008155600101620005a7565b614afc80620005cd6000396000f3fe608060405234801561001057600080fd5b50600436106103825760003560e01c80637ec4a659116101de578063aa271e1a1161010f578063c87b56dd116100ad578063e985e9c51161007c578063e985e9c5146113c3578063ebb4f272146113f1578063f242432a146113f9578063f2fde38b146114c257610382565b8063c87b56dd146110f9578063cdb50a4214611116578063e06e0e221461111e578063e6fd76fe1461119a57610382565b8063b88d4fde116100e9578063b88d4fde14610fcf578063bf1fe42014611093578063c2db1abe146110b0578063c7778baa146110dc57610382565b8063aa271e1a14610f84578063ad61ccd514610faa578063adebf6f214610fb257610382565b80639220dd041161017c57806398650275116101565780639865027514610e0c578063a1231a4a14610e14578063a22cb46514610eb5578063a51183be14610ee357610382565b80639220dd0414610da457806395d89b4114610dde578063983b2d5614610de657610382565b806383947ea0116101b857806383947ea014610bb05780638456cb5914610d8c5780638da5cb5b14610d945780638f32d59b14610d9c57610382565b80637ec4a65914610aae57806380274db714610b1c57806382dc1ec414610b8a57610382565b806342842e0e116102b85780636352211e1161025657806370a082311161023057806370a0823114610a55578063715018a614610a7b57806374e861d614610a8357806377f1d21f14610a8b57610382565b80636352211e14610a0a5780636b8f9c4314610a275780636ef8d66d14610a4d57610382565b80634f558e79116102925780634f558e79146109ab57806358ea82e6146109c85780635c975abb146109fa5780635e66d0e414610a0257610382565b806342842e0e146107dc57806346fbf68e146108125780634e1273f41461083857610382565b80631e9f8aad116103255780632886bc07116102ff5780632886bc07146105825780632eb2c2d6146105a557806338d6d5c2146107665780633f4ba83a146107d457610382565b80631e9f8aad1461051e578063220b74101461054457806323b872dd1461054c57610382565b8063081812fc11610361578063081812fc1461047d578063095ea7b3146104b65780630e89341c146104e457806312b8f7871461050157610382565b8062fdd58e1461038757806301ffc9a7146103c557806306fdde0314610400575b600080fd5b6103b36004803603604081101561039d57600080fd5b506001600160a01b0381351690602001356114e8565b60408051918252519081900360200190f35b6103ec600480360360208110156103db57600080fd5b50356001600160e01b031916611569565b604080519115158252519081900360200190f35b610408611629565b6040805160208082528351818301528351919283929083019185019080838360005b8381101561044257818101518382015260200161042a565b50505050905090810190601f16801561046f5780820380516001836020036101000a031916815260200191505b509250505060405180910390f35b61049a6004803603602081101561049357600080fd5b5035611661565b604080516001600160a01b039092168252519081900360200190f35b6104e2600480360360408110156104cc57600080fd5b506001600160a01b0381351690602001356116a1565b005b610408600480360360208110156104fa57600080fd5b503561170f565b6103ec6004803603602081101561051757600080fd5b503561174d565b6104e26004803603602081101561053457600080fd5b50356001600160a01b031661179d565b61049a611806565b6104e26004803603606081101561056257600080fd5b506001600160a01b03813581169160208101359091169060400135611815565b6104e26004803603604081101561059857600080fd5b5080359060200135611885565b6104e2600480360360a08110156105bb57600080fd5b6001600160a01b038235811692602081013590911691810190606081016040820135600160201b8111156105ee57600080fd5b82018360208201111561060057600080fd5b803590602001918460208302840111600160201b8311171561062157600080fd5b9190808060200260200160405190810160405280939291908181526020018383602002808284376000920191909152509295949360208101935035915050600160201b81111561067057600080fd5b82018360208201111561068257600080fd5b803590602001918460208302840111600160201b831117156106a357600080fd5b9190808060200260200160405190810160405280939291908181526020018383602002808284376000920191909152509295949360208101935035915050600160201b8111156106f257600080fd5b82018360208201111561070457600080fd5b803590602001918460018302840111600160201b8311171561072557600080fd5b91908080601f01602080910402602001604051908101604052809392919081815260200183838082843760009201919091525092955061190b945050505050565b6104e26004803603602081101561077c57600080fd5b810190602081018135600160201b81111561079657600080fd5b8201836020820111156107a857600080fd5b803590602001918460018302840111600160201b831117156107c957600080fd5b5090925090506119a5565b6104e26119f8565b6104e2600480360360608110156107f257600080fd5b506001600160a01b03813581169160208101359091169060400135611ae1565b6103ec6004803603602081101561082857600080fd5b50356001600160a01b0316611b4b565b61095b6004803603604081101561084e57600080fd5b810190602081018135600160201b81111561086857600080fd5b82018360208201111561087a57600080fd5b803590602001918460208302840111600160201b8311171561089b57600080fd5b9190808060200260200160405190810160405280939291908181526020018383602002808284376000920191909152509295949360208101935035915050600160201b8111156108ea57600080fd5b8201836020820111156108fc57600080fd5b803590602001918460208302840111600160201b8311171561091d57600080fd5b919080806020026020016040519081016040528093929190818152602001838360200280828437600092019190915250929550611b5e945050505050565b60408051602080825283518183015283519192839290830191858101910280838360005b8381101561099757818101518382015260200161097f565b505050509050019250505060405180910390f35b6103ec600480360360208110156109c157600080fd5b5035611cda565b6104e2600480360360608110156109de57600080fd5b506001600160a01b038135169060208101359060400135611cf7565b6103ec611d5a565b61049a611d63565b61049a60048036036020811015610a2057600080fd5b5035611d72565b6104e260048036036020811015610a3d57600080fd5b50356001600160a01b0316611da8565b6104e2611e27565b6103b360048036036020811015610a6b57600080fd5b50356001600160a01b0316611e39565b6104e2611e6a565b61049a611efb565b6104e260048036036040811015610aa157600080fd5b5080359060200135611f0a565b6104e260048036036020811015610ac457600080fd5b810190602081018135600160201b811115610ade57600080fd5b820183602082011115610af057600080fd5b803590602001918460018302840111600160201b83111715610b1157600080fd5b509092509050611f81565b6103b360048036036020811015610b3257600080fd5b810190602081018135600160201b811115610b4c57600080fd5b820183602082011115610b5e57600080fd5b803590602001918460018302840111600160201b83111715610b7f57600080fd5b509092509050611fd4565b6104e260048036036020811015610ba057600080fd5b50356001600160a01b0316612073565b610d0d6004803603610120811015610bc757600080fd5b6001600160a01b038235811692602081013590911691810190606081016040820135600160201b811115610bfa57600080fd5b820183602082011115610c0c57600080fd5b803590602001918460018302840111600160201b83111715610c2d57600080fd5b91908080601f016020809104026020016040519081016040528093929190818152602001838380828437600092019190915250929584359560208601359560408101359550606081013594509192509060a081019060800135600160201b811115610c9757600080fd5b820183602082011115610ca957600080fd5b803590602001918460018302840111600160201b83111715610cca57600080fd5b91908080601f01602080910402602001604051908101604052809392919081815260200183838082843760009201919091525092955050913592506120c5915050565b6040518083815260200180602001828103825283818151815260200191508051906020019080838360005b83811015610d50578181015183820152602001610d38565b50505050905090810190601f168015610d7d5780820380516001836020036101000a031916815260200191505b50935050505060405180910390f35b6104e26121c3565b61049a61228a565b6103ec612299565b6104e260048036036080811015610dba57600080fd5b506001600160a01b03813516906020810135906040810135906060013515156122bf565b610408612323565b6104e260048036036020811015610dfc57600080fd5b50356001600160a01b0316612342565b6104e2612391565b6104e260048036036020811015610e2a57600080fd5b810190602081018135600160201b811115610e4457600080fd5b820183602082011115610e5657600080fd5b803590602001918460208302840111600160201b83111715610e7757600080fd5b9190808060200260200160405190810160405280939291908181526020018383602002808284376000920191909152509295506123a1945050505050565b6104e260048036036040811015610ecb57600080fd5b506001600160a01b03813516906020013515156124da565b6104e260048036036020811015610ef957600080fd5b810190602081018135600160201b811115610f1357600080fd5b820183602082011115610f2557600080fd5b803590602001918460208302840111600160201b83111715610f4657600080fd5b91908080602002602001604051908101604052809392919081815260200183836020028082843760009201919091525092955061252f945050505050565b6103ec60048036036020811015610f9a57600080fd5b50356001600160a01b03166125f5565b610408612608565b6103ec60048036036020811015610fc857600080fd5b5035612627565b6104e260048036036080811015610fe557600080fd5b6001600160a01b03823581169260208101359091169160408201359190810190608081016060820135600160201b81111561101f57600080fd5b82018360208201111561103157600080fd5b803590602001918460018302840111600160201b8311171561105257600080fd5b91908080601f016020809104026020016040519081016040528093929190818152602001838380828437600092019190915250929550612631945050505050565b6104e2600480360360208110156110a957600080fd5b503561269c565b6104e2600480360360408110156110c657600080fd5b50803590602001356001600160a01b03166126e8565b6103b3600480360360208110156110f257600080fd5b5035612739565b6104086004803603602081101561110f57600080fd5b5035612755565b6103b3612772565b6104e26004803603608081101561113457600080fd5b810190602081018135600160201b81111561114e57600080fd5b82018360208201111561116057600080fd5b803590602001918460018302840111600160201b8311171561118157600080fd5b9193509150803515159060208101359060400135612778565b6104e2600480360360a08110156111b057600080fd5b810190602081018135600160201b8111156111ca57600080fd5b8201836020820111156111dc57600080fd5b803590602001918460208302840111600160201b831117156111fd57600080fd5b9190808060200260200160405190810160405280939291908181526020018383602002808284376000920191909152509295949360208101935035915050600160201b81111561124c57600080fd5b82018360208201111561125e57600080fd5b803590602001918460208302840111600160201b8311171561127f57600080fd5b9190808060200260200160405190810160405280939291908181526020018383602002808284376000920191909152509295949360208101935035915050600160201b8111156112ce57600080fd5b8201836020820111156112e057600080fd5b803590602001918460208302840111600160201b8311171561130157600080fd5b9190808060200260200160405190810160405280939291908181526020018383602002808284376000920191909152509295949360208101935035915050600160201b81111561135057600080fd5b82018360208201111561136257600080fd5b803590602001918460208302840111600160201b8311171561138357600080fd5b9190808060200260200160405190810160405280939291908181526020018383602002808284376000920191909152509295505050503515159050612813565b6103ec600480360360408110156113d957600080fd5b506001600160a01b03813581169160200135166129ae565b6104e26129dc565b6104e2600480360360a081101561140f57600080fd5b6001600160a01b03823581169260208101359091169160408201359160608101359181019060a081016080820135600160201b81111561144e57600080fd5b82018360208201111561146057600080fd5b803590602001918460018302840111600160201b8311171561148157600080fd5b91908080601f016020809104026020016040519081016040528093929190818152602001838380828437600092019190915250929550612a31945050505050565b6104e2600480360360208110156114d857600080fd5b50356001600160a01b0316612a9d565b60006001600160a01b0383166114fd57600080fd5b61150682612aed565b15611540576000828152600360205260409020546001600160a01b03848116911614611533576000611536565b60015b60ff169050611563565b506000818152602081815260408083206001600160a01b03861684529091529020545b92915050565b60006301ffc9a760e01b6001600160e01b03198316148061159a57506380ac58cd60e01b6001600160e01b03198316145b806115b55750635b5e139f60e01b6001600160e01b03198316145b806115d05750634f558e7960e01b6001600160e01b03198316145b806115eb5750636cdb3d1360e11b6001600160e01b03198316145b8061160657506304e72e2360e11b6001600160e01b03198316145b8061162157506303a24d0760e21b6001600160e01b03198316145b90505b919050565b60408051808201909152601981527f4631c2ae2044656c74612054696d6520496e76656e746f72790000000000000060208201525b90565b600061166c82612aed565b801561167c575061167c82611cda565b61168557600080fd5b506000908152600260205260409020546001600160a01b031690565b60075460ff16156116ec576040805162461bcd60e51b815260206004820152601060248201526f14185d5cd8589b194e881c185d5cd95960821b604482015290519081900360640190fd5b806116f68161174d565b1561170057600080fd5b61170a8383612b0a565b505050565b6000818152601260205260409020546060906117355761172e82612bed565b9050611624565b60008281526012602052604090205461162190612e57565b600061175882612aed565b15611785576008600061176a84612739565b815260208101919091526040016000205460ff169050611624565b5060008181526008602052604090205460ff16611624565b6117a5612299565b6117e4576040805162461bcd60e51b81526020600482018190526024820152600080516020614a42833981519152604482015290519081900360640190fd5b600b80546001600160a01b0319166001600160a01b0392909216919091179055565b600b546001600160a01b031681565b60075460ff1615611860576040805162461bcd60e51b815260206004820152601060248201526f14185d5cd8589b194e881c185d5cd95960821b604482015290519081900360640190fd5b8061186a8161174d565b1561187457600080fd5b61187f84848461305b565b50505050565b611895611890613078565b6125f5565b6118d05760405162461bcd60e51b81526004018080602001828103825260308152602001806149f16030913960400191505060405180910390fd5b600f5460ff161580156118e257508015155b6118eb57600080fd5b6118f482611cda565b6118fd57600080fd5b61190782826130a3565b5050565b60075460ff1615611956576040805162461bcd60e51b815260206004820152601060248201526f14185d5cd8589b194e881c185d5cd95960821b604482015290519081900360640190fd5b60005b83518110156119905761197e84828151811061197157fe5b602002602001015161174d565b1561198857600080fd5b600101611959565b5061199e8585858585613201565b5050505050565b6119ad612299565b6119ec576040805162461bcd60e51b81526020600482018190526024820152600080516020614a42833981519152604482015290519081900360640190fd5b61170a601183836148e2565b611a08611a03613078565b611b4b565b611a435760405162461bcd60e51b815260040180806020018281038252603081526020018061499b6030913960400191505060405180910390fd5b60075460ff16611a91576040805162461bcd60e51b815260206004820152601460248201527314185d5cd8589b194e881b9bdd081c185d5cd95960621b604482015290519081900360640190fd5b6007805460ff191690557f5db9ee0a495bf2e6ff9c91a7834c1ba4fdd244a5e8aa4e537bd38aeae4b073aa611ac4613078565b604080516001600160a01b039092168252519081900360200190a1565b60075460ff1615611b2c576040805162461bcd60e51b815260206004820152601060248201526f14185d5cd8589b194e881c185d5cd95960821b604482015290519081900360640190fd5b80611b368161174d565b15611b4057600080fd5b61187f84848461343a565b600061162160068363ffffffff61345716565b60608151835114611b6e57600080fd5b60608351604051908082528060200260200182016040528015611b9b578160200160208202803883390190505b50905060005b8451811015611cd25760006001600160a01b0316858281518110611bc157fe5b60200260200101516001600160a01b03161415611bdd57600080fd5b6000848281518110611beb57fe5b60200260200101519050611bfe81612aed565b15611c6757858281518110611c0f57fe5b602090810291909101810151600083815260039092526040909120546001600160a01b03908116911614611c44576000611c47565b60015b60ff16838381518110611c5657fe5b602002602001018181525050611cc9565b6000808281526020019081526020016000206000878481518110611c8757fe5b60200260200101516001600160a01b03166001600160a01b0316815260200190815260200160002054838381518110611cbc57fe5b6020026020010181815250505b50600101611ba1565b509392505050565b6000908152600360205260409020546001600160a01b0316151590565b611d02611890613078565b611d3d5760405162461bcd60e51b81526004018080602001828103825260308152602001806149f16030913960400191505060405180910390fd5b611d4682612627565b611d4f57600080fd5b61170a8383836134be565b60075460ff1690565b600c546001600160a01b031681565b6000611d7d82612aed565b611d8657600080fd5b6000828152600360205260409020546001600160a01b03168061162157600080fd5b611db0612299565b611def576040805162461bcd60e51b81526020600482018190526024820152600080516020614a42833981519152604482015290519081900360640190fd5b6001600160a01b038116301415611e0557600080fd5b600c80546001600160a01b0319166001600160a01b0392909216919091179055565b611e37611e32613078565b6135d0565b565b60006001600160a01b038216611e4e57600080fd5b506001600160a01b031660009081526004602052604090205490565b611e72612299565b611eb1576040805162461bcd60e51b81526020600482018190526024820152600080516020614a42833981519152604482015290519081900360640190fd5b600a546040516000916001600160a01b0316907f8be0079c531659141344cd1fd0a4f28419497f9722a3daafe3b4186f6b6457e0908390a3600a80546001600160a01b0319169055565b6009546001600160a01b031690565b611f15611890613078565b611f505760405162461bcd60e51b81526004018080602001828103825260308152602001806149f16030913960400191505060405180910390fd5b600f5460ff16611f61578015611f65565b8015155b611f6e57600080fd5b611f7782612aed565b156118fd57600080fd5b611f89612299565b611fc8576040805162461bcd60e51b81526020600482018190526024820152600080516020614a42833981519152604482015290519081900360640190fd5b61170a601083836148e2565b6000611fde611efb565b6001600160a01b0316336001600160a01b03161461202d5760405162461bcd60e51b8152600401808060200182810382526024815260200180614aa46024913960400191505060405180910390fd5b61206c83838080601f01602080910402602001604051908101604052809392919081815260200183838082843760009201919091525061361892505050565b9392505050565b61207e611a03613078565b6120b95760405162461bcd60e51b815260040180806020018281038252603081526020018061499b6030913960400191505060405180910390fd5b6120c2816136e0565b50565b600060606103e8600d548402816120d857fe5b600b54604080516370a0823160e01b81526001600160a01b038f81166004830152915194909304939116916370a08231916024808301926020929190829003018186803b15801561212857600080fd5b505afa15801561213c573d6000803e3d6000fd5b505050506040513d602081101561215257600080fd5b5051101561216d576121646000613728565b915091506121b5565b604080516001600160a01b038c166020820152808201859052606081018a905260808082018a90528251808303909101815260a09091019091526121b090613740565b915091505b995099975050505050505050565b6121ce611a03613078565b6122095760405162461bcd60e51b815260040180806020018281038252603081526020018061499b6030913960400191505060405180910390fd5b60075460ff1615612254576040805162461bcd60e51b815260206004820152601060248201526f14185d5cd8589b194e881c185d5cd95960821b604482015290519081900360640190fd5b6007805460ff191660011790557f62e78cea01bee320cd4e420270b5ea74000d11b0c9f74754ebdbfc544b05a258611ac4613078565b600a546001600160a01b031690565b600a546000906001600160a01b03166122b0613078565b6001600160a01b031614905090565b6122ca611890613078565b6123055760405162461bcd60e51b81526004018080602001828103825260308152602001806149f16030913960400191505060405180910390fd5b61230e83612aed565b61231757600080fd5b61187f84848484613745565b604080518082019091526005815264463144544960d81b602082015290565b61234d611890613078565b6123885760405162461bcd60e51b81526004018080602001828103825260308152602001806149f16030913960400191505060405180910390fd5b6120c2816138ef565b611e3761239c613078565b613937565b6123ac611a03613078565b6123e75760405162461bcd60e51b815260040180806020018281038252603081526020018061499b6030913960400191505060405180910390fd5b60005b815181101561244057600082828151811061240157fe5b6020026020010151905061241481612aed565b1561241e57600080fd5b6000908152600860205260409020805460ff19166001908117909155016123ea565b507f544b233d0a424675b228569e0cd5f4469159768edb0aaf89496e229d52c743b18161246b613078565b6040518080602001836001600160a01b03166001600160a01b03168152602001828103825284818151815260200191508051906020019060200280838360005b838110156124c35781810151838201526020016124ab565b50505050905001935050505060405180910390a150565b60075460ff1615612525576040805162461bcd60e51b815260206004820152601060248201526f14185d5cd8589b194e881c185d5cd95960821b604482015290519081900360640190fd5b611907828261397f565b61253a611a03613078565b6125755760405162461bcd60e51b815260040180806020018281038252603081526020018061499b6030913960400191505060405180910390fd5b60005b81518110156125ca57600082828151811061258f57fe5b602002602001015190506125a281612aed565b156125ac57600080fd5b6000908152600860205260409020805460ff19169055600101612578565b507f7b63f21aac0ba7d47a2acbd39181fd15997b6cd9726c8de842548a73fda502208161246b613078565b6000611621600e8363ffffffff61345716565b6040805180820190915260058152640312e302e360dc1b602082015290565b600160ff1b161590565b60075460ff161561267c576040805162461bcd60e51b815260206004820152601060248201526f14185d5cd8589b194e881c185d5cd95960821b604482015290519081900360640190fd5b816126868161174d565b1561269057600080fd5b61199e858585856139b5565b6126a4612299565b6126e3576040805162461bcd60e51b81526020600482018190526024820152600080516020614a42833981519152604482015290519081900360640190fd5b600d55565b6126f0612299565b61272f576040805162461bcd60e51b81526020600482018190526024820152600080516020614a42833981519152604482015290519081900360640190fd5b61190782826139c3565b600061274482612aed565b61274d57600080fd5b506005541690565b606061276082611cda565b61276957600080fd5b6116218261170f565b600d5481565b612780611efb565b6001600160a01b0316336001600160a01b0316146127cf5760405162461bcd60e51b8152600401808060200182810382526024815260200180614aa46024913960400191505060405180910390fd5b61199e85858080601f016020809104026020016040519081016040528093929190818152602001838380828437600092019190915250879250869150859050613a2a565b61281e611890613078565b6128595760405162461bcd60e51b81526004018080602001828103825260308152602001806149f16030913960400191505060405180910390fd5b8451845114801561286b575082518451145b8015612878575081518451145b61288157600080fd5b60005b84518110156129a6576128a985828151811061289c57fe5b6020026020010151612aed565b80156128c857508281815181106128bc57fe5b60200260200101516001145b15612917576129128682815181106128dc57fe5b60200260200101518683815181106128f057fe5b602002602001015186848151811061290457fe5b602002602001015185613745565b61299e565b61293385828151811061292657fe5b6020026020010151612627565b8015612955575083818151811061294657fe5b602002602001015160001c6000145b156103825761291286828151811061296957fe5b602002602001015186838151811061297d57fe5b602002602001015185848151811061299157fe5b60200260200101516134be565b600101612884565b505050505050565b6001600160a01b03918216600090815260016020908152604080832093909416825291909152205460ff1690565b6129e7611890613078565b612a225760405162461bcd60e51b81526004018080602001828103825260308152602001806149f16030913960400191505060405180910390fd5b600f805460ff19166001179055565b60075460ff1615612a7c576040805162461bcd60e51b815260206004820152601060248201526f14185d5cd8589b194e881c185d5cd95960821b604482015290519081900360640190fd5b82612a868161174d565b15612a9057600080fd5b6129a68686868686613b6c565b612aa5612299565b612ae4576040805162461bcd60e51b81526020600482018190526024820152600080516020614a42833981519152604482015290519081900360640190fd5b6120c281613cd2565b6000600160ff1b8216158015906116215750506005541916151590565b6000612b1582611d72565b9050806001600160a01b0316836001600160a01b03161415612b3657600080fd5b6000612b40613078565b9050816001600160a01b0316816001600160a01b03161480612b8757506001600160a01b0380831660009081526001602090815260408083209385168352929052205460ff165b612b9057600080fd5b60008381526002602052604080822080546001600160a01b0319166001600160a01b0388811691821790925591518693918616917f8c5be1e5ebec7d5bd14f71427d1e84f3dd0314c0f7b2291e5b200ac8c7c3b92591a450505050565b6060601073__Bytes_________________________________63f76f950e846040518263ffffffff1660e01b81526004018082815260200191505060006040518083038186803b158015612c4057600080fd5b505af4158015612c54573d6000803e3d6000fd5b505050506040513d6000823e601f3d908101601f191682016040526020811015612c7d57600080fd5b8101908080516040519392919084600160201b821115612c9c57600080fd5b908301906020820185811115612cb157600080fd5b8251600160201b811182820188101715612cca57600080fd5b82525081516020918201929091019080838360005b83811015612cf7578181015183820152602001612cdf565b50505050905090810190601f168015612d245780820380516001836020036101000a031916815260200191505b506040525050506040516020018083805460018160011615610100020316600290048015612d895780601f10612d67576101008083540402835291820191612d89565b820191906000526020600020905b815481529060010190602001808311612d75575b5050825160208401908083835b60208310612db55780518252601f199092019160209182019101612d96565b6001836020036101000a038019825116818451168082178552505050505050905001925050506040516020818303038152906040526040516020018082805190602001908083835b60208310612e1c5780518252601f199092019160209182019101612dfd565b6001836020036101000a0380198251168184511680821785525050505050509050019150506040516020818303038152906040529050919050565b6060601173__Bytes_________________________________63a85796eb846040518263ffffffff1660e01b81526004018082815260200191505060006040518083038186803b158015612eaa57600080fd5b505af4158015612ebe573d6000803e3d6000fd5b505050506040513d6000823e601f3d908101601f191682016040526020811015612ee757600080fd5b8101908080516040519392919084600160201b821115612f0657600080fd5b908301906020820185811115612f1b57600080fd5b8251600160201b811182820188101715612f3457600080fd5b82525081516020918201929091019080838360005b83811015612f61578181015183820152602001612f49565b50505050905090810190601f168015612f8e5780820380516001836020036101000a031916815260200191505b506040525050506040516020018083805460018160011615610100020316600290048015612ff35780601f10612fd1576101008083540402835291820191612ff3565b820191906000526020600020905b815481529060010190602001808311612fdf575b5050825160208401908083835b6020831061301f5780518252601f199092019160209182019101613000565b6001836020036101000a038019825116818451168082178552505050505050905001925050506040516020818303038152906040529050919050565b61170a838383604051806020016040528060008152506000613d73565b6009546000906001600160a01b0316331461309457503361165e565b61309c613e8b565b905061165e565b801561315e576000828152601260205260409020819055817f6bb7ff708619ba0610cba295a58592e0451dee2622938c8755667688daf3529b6130e583612e57565b6040805160208082528351818301528351919283929083019185019080838360005b8381101561311f578181015183820152602001613107565b50505050905090810190601f16801561314c5780820380516001836020036101000a031916815260200191505b509250505060405180910390a2611907565b817f6bb7ff708619ba0610cba295a58592e0451dee2622938c8755667688daf3529b61318984612bed565b6040805160208082528351818301528351919283929083019185019080838360005b838110156131c35781810151838201526020016131ab565b50505050905090810190601f1680156131f05780820380516001836020036101000a031916815260200191505b509250505060405180910390a25050565b6001600160a01b03841661321457600080fd5b815183511461322257600080fd5b600061322c613078565b9050806001600160a01b0316866001600160a01b0316148061327857506001600160a01b03808716600090815260016020818152604080842094861684529390529190205460ff161515145b61328157600080fd5b60005b845181101561334957600085828151811061329b57fe5b6020026020010151905060008583815181106132b357fe5b602002602001015190506132c682612627565b80156132d25750600081115b156132e8576132e389898484613ed8565b61333f565b6132f182612aed565b80156132fd5750806001145b156103825761330f8989846001613f63565b81886001600160a01b03168a6001600160a01b0316600080516020614a8483398151915260405160405180910390a45b5050600101613284565b50846001600160a01b0316866001600160a01b0316826001600160a01b03167f4a39dc06d4c0dbc64b70af90fd698a233a518aa5d07e595d983b8c0526c8f7fb8787604051808060200180602001838103835285818151815260200191508051906020019060200280838360005b838110156133cf5781810151838201526020016133b7565b50505050905001838103825284818151815260200191508051906020019060200280838360005b8381101561340e5781810151838201526020016133f6565b5050505090500194505050505060405180910390a4613431818787878787614138565b6129a657600080fd5b61170a838383604051806020016040528060008152506001613d73565b60006001600160a01b03821661349e5760405162461bcd60e51b8152600401808060200182810382526022815260200180614a626022913960400191505060405180910390fd5b506001600160a01b03166000908152602091909152604090205460ff1690565b6001600160a01b0383166134d157600080fd5b600081116134de57600080fd5b6000828152602081815260408083206001600160a01b03871684529091529020546135099082614306565b6000838152602081815260408083206001600160a01b0388168085529252822092909255613535613078565b6001600160a01b031660008051602061497b8339815191528585604051808381526020018281526020019250505060405180910390a4613593613576613078565b600085858560405180602001604052806000815250600080614360565b61170a576040805162461bcd60e51b81526020600482015260096024820152686661696c436865636b60b81b604482015290519081900360640190fd5b6135e160068263ffffffff6144e616565b6040516001600160a01b038216907fcd265ebaf09df2871cc7bd4133404a235ba12eff2041bb89d9c714a2621c7c7e90600090a250565b600080600083806020019051604081101561363257600080fd5b508051602091820151600b54600c54600d54604080516323b872dd60e01b81526001600160a01b03808816600483015293841660248201526103e89286029290920460448301525194975092955016926323b872dd926064808401938290030181600087803b1580156136a457600080fd5b505af11580156136b8573d6000803e3d6000fd5b505050506040513d60208110156136ce57600080fd5b50516136d957600080fd5b5050919050565b6136f160068263ffffffff61454d16565b6040516001600160a01b038216907f6719d08c1888103bea251a4ed56406bd0c3e69723c8a1686e017e7bbe159b6f890600090a250565b604080516020810190915260008152600b9190910191565b600091565b6001600160a01b03841661375857600080fd5b61376183611cda565b1561376b57600080fd5b600554600084815260036020908152604080832080546001600160a01b0319166001600160a01b038a1690811790915583526004909152902054908416906137b4906001614306565b6001600160a01b0386166000818152600460209081526040808320949094558482528181528382209282529190915220546137f0906001614306565b6000828152602081815260408083206001600160a01b038a16808552925280832093909355915186929190600080516020614a84833981519152908290a46001600160a01b0385166000613842613078565b6001600160a01b031660008051602061497b833981519152876001604051808381526020018281526020019250505060405180910390a461388384846130a3565b811561199e576138b2613894613078565b60008787600160405180602001604052806000815250600080614360565b61199e576040805162461bcd60e51b81526020600482015260096024820152686661696c436865636b60b81b604482015290519081900360640190fd5b613900600e8263ffffffff61454d16565b6040516001600160a01b038216907f6ae172837ea30b801fbfcdd4108aa1d5bf8ff775444fd70256b44e6bf3dfc3f690600090a250565b613948600e8263ffffffff6144e616565b6040516001600160a01b038216907fe94479a9f7e1952cc78f2d6baab678adc1b772d936c6583def489e524cb6669290600090a250565b6000613989613078565b9050806001600160a01b0316836001600160a01b031614156139aa57600080fd5b61170a8184846145ce565b61187f848484846001613d73565b60095460408051627b8a6760e11b8152600481018590526001600160a01b0384811660248301529151919092169162f714ce91604480830192600092919082900301818387803b158015613a1657600080fd5b505af11580156129a6573d6000803e3d6000fd5b600080600080878060200190516080811015613a4557600080fd5b50805160208201516040830151606090930151919650945090925090506000613a7d613a76620186a061271061463c565b838561467e565b9050613a89878261463c565b600b54600c54600d549299506001600160a01b03918216926323b872dd929091169088906103e890613abb8a8e61463c565b0281613ac357fe5b046040518463ffffffff1660e01b815260040180846001600160a01b03166001600160a01b03168152602001836001600160a01b03166001600160a01b031681526020018281526020019350505050602060405180830381600087803b158015613b2c57600080fd5b505af1158015613b40573d6000803e3d6000fd5b505050506040513d6020811015613b5657600080fd5b5051613b6157600080fd5b505050505050505050565b6001600160a01b038416613b7f57600080fd5b6000613b89613078565b90506000816001600160a01b0316876001600160a01b03161480613bd757506001600160a01b03808816600090815260016020818152604080842094871684529390529190205460ff161515145b9050613be285612627565b8015613bee5750600084115b15613c0e5780613bfd57600080fd5b613c0987878787613ed8565b613c64565b613c1785612aed565b8015613c235750836001145b1561038257613c3487878784613f63565b84866001600160a01b0316886001600160a01b0316600080516020614a8483398151915260405160405180910390a45b856001600160a01b0316876001600160a01b0316836001600160a01b031660008051602061497b8339815191528888604051808381526020018281526020019250505060405180910390a4613cc0828888888888600080614360565b613cc957600080fd5b50505050505050565b6001600160a01b038116613d175760405162461bcd60e51b81526004018080602001828103825260268152602001806149cb6026913960400191505060405180910390fd5b600a546040516001600160a01b038084169216907f8be0079c531659141344cd1fd0a4f28419497f9722a3daafe3b4186f6b6457e090600090a3600a80546001600160a01b0319166001600160a01b0392909216919091179055565b6001600160a01b038416613d8657600080fd5b613d8f83612aed565b613d9857600080fd5b6000613da2613078565b90506000816001600160a01b0316876001600160a01b03161480613df057506001600160a01b03808816600090815260016020818152604080842094871684529390529190205460ff161515145b9050613dfe87878784613f63565b84866001600160a01b0316886001600160a01b0316600080516020614a8483398151915260405160405180910390a4856001600160a01b0316876001600160a01b0316836001600160a01b031660008051602061497b833981519152886001604051808381526020018281526020019250505060405180910390a4613cc08288888860018960018a614360565b600060606000368080601f0160208091040260200160405190810160405280939291908181526020018383808284376000920191909152505050503601516001600160a01b031692915050565b6000828152602081815260408083206001600160a01b0388168452909152902054613f03908261463c565b6000838152602081815260408083206001600160a01b038981168552925280832093909355851681522054613f389082614306565b6000928352602083815260408085206001600160a01b03909616855294905292909120919091555050565b6000828152600360205260409020546001600160a01b03858116911614613f8957600080fd5b6000613f93613078565b90508180613fba5750806001600160a01b0316613faf84611d72565b6001600160a01b0316145b80613fde5750806001600160a01b0316613fd384611661565b6001600160a01b0316145b613fe757600080fd5b6000838152600260205260409020546001600160a01b03161561402157600083815260026020526040902080546001600160a01b03191690555b60055483166000818152602081815260408083206001600160a01b038a16845290915290205461405290600161463c565b6000828152602081815260408083206001600160a01b038b81168552925280832093909355871681522054614088906001614306565b6000828152602081815260408083206001600160a01b03808b1685529083528184209490945592891682526004905220546140c490600161463c565b6001600160a01b0380881660009081526004602052604080822093909355908716815220546140f4906001614306565b6001600160a01b0390951660008181526004602090815260408083209890985595815260039095529490932080546001600160a01b03191690941790935550505050565b60006141438561468c565b61414f575060016142fc565b6000856001600160a01b031663bc197c8189898888886040518663ffffffff1660e01b815260040180866001600160a01b03166001600160a01b03168152602001856001600160a01b03166001600160a01b03168152602001806020018060200180602001848103845287818151815260200191508051906020019060200280838360005b838110156141ec5781810151838201526020016141d4565b50505050905001848103835286818151815260200191508051906020019060200280838360005b8381101561422b578181015183820152602001614213565b50505050905001848103825285818151815260200191508051906020019080838360005b8381101561426757818101518382015260200161424f565b50505050905090810190601f1680156142945780820380516001836020036101000a031916815260200191505b5098505050505050505050602060405180830381600087803b1580156142b957600080fd5b505af11580156142cd573d6000803e3d6000fd5b505050506040513d60208110156142e357600080fd5b50516001600160e01b03191663bc197c8160e01b149150505b9695505050505050565b60008282018381101561206c576040805162461bcd60e51b815260206004820152601b60248201527f536166654d6174683a206164646974696f6e206f766572666c6f770000000000604482015290519081900360640190fd5b600061436b8761468c565b614377575060016144da565b82156143ac57614386876146c8565b6143ac5781156143a45761439d898989898861471f565b90506144da565b5060016144da565b866001600160a01b031663f23a6e618a8a8989896040518663ffffffff1660e01b815260040180866001600160a01b03166001600160a01b03168152602001856001600160a01b03166001600160a01b0316815260200184815260200183815260200180602001828103825283818151815260200191508051906020019080838360005b83811015614448578181015183820152602001614430565b50505050905090810190601f1680156144755780820380516001836020036101000a031916815260200191505b509650505050505050602060405180830381600087803b15801561449857600080fd5b505af11580156144ac573d6000803e3d6000fd5b505050506040513d60208110156144c257600080fd5b50516001600160e01b03191663f23a6e6160e01b1490505b98975050505050505050565b6144f08282613457565b61452b5760405162461bcd60e51b8152600401808060200182810382526021815260200180614a216021913960400191505060405180910390fd5b6001600160a01b0316600090815260209190915260409020805460ff19169055565b6145578282613457565b156145a9576040805162461bcd60e51b815260206004820152601f60248201527f526f6c65733a206163636f756e7420616c72656164792068617320726f6c6500604482015290519081900360640190fd5b6001600160a01b0316600090815260209190915260409020805460ff19166001179055565b6001600160a01b03838116600081815260016020908152604080832094871680845294825291829020805460ff1916861515908117909155825190815291517f17307eab39ab6107e8899845ad3d59bd9653f200f220920489ca2b5937696c319281900390910190a3505050565b600061206c83836040518060400160405280601e81526020017f536166654d6174683a207375627472616374696f6e206f766572666c6f77000081525061484b565b606490810191909202020490565b6000813f7fc5d2460186f7233c927e7db2dcc703c0e500b653ca82273b7bfad8045d85a4708181148015906146c057508115155b949350505050565b6040516301ffc9a760e01b808252630271189760e51b60048301819052600092909190839081906020816024818a612710fa92508051915050609e5a1161470b57fe5b8180156142fc575060011495945050505050565b600061472a8461468c565b61473657506001614842565b604051630a85bd0160e11b81526001600160a01b03878116600483019081528782166024840152604483018690526080606484019081528551608485015285519288169363150b7a02938b938b938a938a9360a490910190602085019080838360005b838110156147b1578181015183820152602001614799565b50505050905090810190601f1680156147de5780820380516001836020036101000a031916815260200191505b5095505050505050602060405180830381600087803b15801561480057600080fd5b505af1158015614814573d6000803e3d6000fd5b505050506040513d602081101561482a57600080fd5b50516001600160e01b031916630a85bd0160e11b1490505b95945050505050565b600081848411156148da5760405162461bcd60e51b81526004018080602001828103825283818151815260200191508051906020019080838360005b8381101561489f578181015183820152602001614887565b50505050905090810190601f1680156148cc5780820380516001836020036101000a031916815260200191505b509250505060405180910390fd5b505050900390565b828054600181600116156101000203166002900490600052602060002090601f016020900481019282601f106149235782800160ff19823516178555614950565b82800160010185558215614950579182015b82811115614950578235825591602001919060010190614935565b5061495c929150614960565b5090565b61165e91905b8082111561495c576000815560010161496656fec3d58168c5ae7397731d063d5bbf3d657854427343f4c083240f7aacaa2d0f62506175736572526f6c653a2063616c6c657220646f6573206e6f742068617665207468652050617573657220726f6c654f776e61626c653a206e6577206f776e657220697320746865207a65726f20616464726573734d696e746572526f6c653a2063616c6c657220646f6573206e6f74206861766520746865204d696e74657220726f6c65526f6c65733a206163636f756e7420646f6573206e6f74206861766520726f6c654f776e61626c653a2063616c6c6572206973206e6f7420746865206f776e6572526f6c65733a206163636f756e7420697320746865207a65726f2061646472657373ddf252ad1be2c89b69c2b068fc378daa952ba7f163c4a11628f55a4df523b3ef47534e526563697069656e743a2063616c6c6572206973206e6f742052656c6179487562a265627a7a723158205b227e37e4f0a0ae8dd09590e1a1e24ef0666898ff335e9c6a2db20159f06f1164736f6c6343000510003268747470733a2f2f6e66742e663164656c746174696d652e636f6d2f6a736f6e2f4f776e61626c653a2063616c6c6572206973206e6f7420746865206f776e6572526f6c65733a206163636f756e7420697320746865207a65726f2061646472657373",
  "source": "pragma solidity = 0.5.16;\n\nimport \"@animocabrands/contracts-inventory/contracts/token/ERC1155721/PausableInventory.sol\";\nimport \"@animocabrands/contracts-inventory/contracts/metatx/ERC20Fees.sol\";\nimport \"@openzeppelin/contracts/access/roles/MinterRole.sol\";\nimport \"@openzeppelin/contracts/math/SafeMath.sol\";\nimport \"contracts/library/Bytes.sol\";\n\n/**\n * @title F1 Delta Time Inventory Contract\n */\ncontract DeltaTimeInventory is PausableInventory, ERC20Fees, MinterRole {\n\n    event FungibleCollection(address indexed id);\n    event NonFungibleCollection(address indexed id);\n\n    bool private _ipfsMigrated;\n\n    string private _uriPrefix = \"https://nft.f1deltatime.com/json/\";\n    string private _ipfsUriPrefix = \"/ipfs/bafkrei\";\n\n    // Mapping Mapping from ID to URI\n    mapping(uint256 => bytes32) private _uris;\n\n    /**\n     * @dev Constructor\n     * @dev 32 DeltaTimeInventory collection type length\n     */\n    constructor(address gasTokenAddress, address payoutWallet\n    ) public PausableInventory(32) ERC20Fees(gasTokenAddress, payoutWallet)  {\n        _ipfsMigrated = false;\n    }\n\n    /**\n     * @dev This function creates the collection id.\n     * @param collectionId collection without fungible/non-fungible identifier\n     * @return uint256 collectionId to create\n     */\n    function createCollection(uint256 collectionId, bytes32 byteUri) onlyMinter external {\n        require(_ipfsMigrated? uint256(byteUri) > 0: uint256(byteUri) == 0);\n        require(!isNFT(collectionId));\n        _setURI(collectionId, byteUri);\n    }\n\n/////////////////////////////////////////// Mint ///////////////////////////////////////\n    /**\n     * @dev Public function to mint a batch of new tokens\n     * Reverts if some the given token IDs already exist\n     * @param to address[] List of addresses that will own the minted tokens\n     * @param ids uint256[] List of ids of the tokens to be minted\n     * @param uris bytes32[] Concatenated metadata URIs of nfts to be minted\n     * @param values uint256[] List of quantities of ft to be minted\n     */\n    function batchMint(address[] memory to, uint256[] memory ids, bytes32[] memory uris, uint256[] memory values, bool safe) public onlyMinter {\n        require(ids.length == to.length &&\n            ids.length == uris.length &&\n            ids.length == values.length);\n\n        for (uint i = 0; i < ids.length; i++) {\n            if (isNFT(ids[i]) && values[i] == 1) {\n                _mintNonFungible(to[i], ids[i], uris[i], safe);\n            } else if (isFungible(ids[i]) && uint256(uris[i]) == 0) {\n                _mintFungible(to[i], ids[i], values[i]);\n            } else {\n                revert();\n            }\n        }\n    }\n\n    /**\n     * @dev Public function to mint one non fungible token id\n     * Reverts if the given token ID is not non fungible token id\n     * @param to address recipient that will own the minted tokens\n     * @param tokenId uint256 ID of the token to be minted\n     * @param byteUri bytes32 Concatenated metadata URI of nft to be minted\n     */\n    function mintNonFungible(address to, uint256 tokenId, bytes32 byteUri, bool safe) external onlyMinter {\n        require(isNFT(tokenId)); // solium-disable-line error-reason\n        _mintNonFungible(to, tokenId, byteUri, safe);\n    }\n\n    /**\n     * @dev Internal function to mint one non fungible token\n     * Reverts if the given token ID already exist\n     * @param to address recipient that will own the minted tokens\n     * @param id uint256 ID of the token to be minted\n     * @param byteUri bytes32 Concatenated metadata URI of nft to be minted\n     */\n    function _mintNonFungible(address to, uint256 id, bytes32 byteUri, bool safe) internal {\n        require(to != address(0x0));\n        require(!exists(id));\n\n        uint256 collection = id & NF_COLLECTION_MASK;\n\n        _owners[id] = to;\n        _nftBalances[to] = SafeMath.add(_nftBalances[to], 1);\n        _balances[collection][to] = SafeMath.add(_balances[collection][to], 1);\n\n        emit Transfer(address(0x0), to, id);\n        emit TransferSingle(_msgSender(), address(0x0), to, id, 1);\n\n        _setURI(id, byteUri);\n\n        if (safe) {\n            require( // solium-disable-line error-reason\n                _checkERC1155AndCallSafeTransfer(_msgSender(), address(0x0), to, id, 1, \"\", false, false), \"failCheck\"\n            );\n        }\n    }\n\n    /**\n     * @dev Public function to mint fungible token\n     * Reverts if the given ID is not fungible collection ID\n     * @param to address recipient that will own the minted tokens\n     * @param collection uint256 ID of the fungible collection to be minted\n     * @param value uint256 amount to mint\n     */\n    function mintFungible(address to, uint256 collection, uint256 value) external onlyMinter {\n        require(isFungible(collection));\n        _mintFungible(to, collection, value);\n    }\n\n    /**\n     * @dev Internal function to mint fungible token\n     * Reverts if the given ID is not exsit\n     * @param to address recipient that will own the minted tokens\n     * @param collection uint256 ID of the fungible collection to be minted\n     * @param value uint256 amount to mint\n     */\n    function _mintFungible(address to, uint256 collection, uint256 value) internal {\n        require(to != address(0x0));\n        require(value > 0);\n\n        _balances[collection][to] = SafeMath.add(_balances[collection][to], value);\n\n        emit TransferSingle(_msgSender(), address(0x0), to, collection, value);\n\n        require( // solium-disable-line error-reason\n            _checkERC1155AndCallSafeTransfer(_msgSender(), address(0x0), to, collection, value, \"\", false, false), \"failCheck\"\n        );\n    }\n\n/////////////////////////////////////////// TokenURI////////////////////////////////////\n\n    /**\n     * @dev Public function to update the metadata URI prefix\n     * @param uriPrefix string the new URI prefix\n     */\n    function setUriPrefix(string calldata uriPrefix) external onlyOwner {\n        _uriPrefix = uriPrefix;\n    }\n\n    /**\n     * @dev Public function to update the metadata IPFS URI prefix\n     * @param ipfsUriPrefix string the new IPFS URI prefix\n     */\n    function setIPFSUriPrefix(string calldata ipfsUriPrefix) external onlyOwner {\n        _ipfsUriPrefix = ipfsUriPrefix;\n    }\n\n    /**\n     * @dev Public function to set the URI for a given ID\n     * Reverts if the ID does not exist or metadata has migrated to IPFS\n     * @param id uint256 ID to set its URI\n     * @param byteUri bytes32 URI to assign\n     */\n    function setURI(uint256 id, bytes32 byteUri) external onlyMinter {\n        require(!_ipfsMigrated && uint256(byteUri) > 0);\n        require(exists(id));\n\n        _setURI(id, byteUri);\n    }\n\n    /**\n     * @dev Internal function to set the URI for a given ID\n     * Reverts if the ID does not exist\n     * @param id uint256 ID to set its URI\n     * @param byteUri bytes32 URI to assign\n     */\n    function _setURI(uint256 id, bytes32 byteUri) internal {\n        if (uint256(byteUri) > 0) {\n            _uris[id] = byteUri;\n            emit URI(_fullUriFromHash(byteUri), id);\n        } else {\n            emit URI(_fullUriFromId(id), id);\n        }\n    }\n\n    /**\n     * @dev Internal function to convert bytes32 hash to full uri string\n     * @param byteUri bytes32 URI to convert\n     * @return string URI convert from given hash\n     */\n    function _fullUriFromHash(bytes32 byteUri) private view returns(string memory) {\n        return string(abi.encodePacked(_ipfsUriPrefix, Bytes.hash2base32(byteUri)));\n    }\n\n    /**\n     * @dev Internal function to convert id to full uri string\n     * @param id uint256 ID to convert\n     * @return string URI convert from given ID\n     */\n    function _fullUriFromId(uint256 id) private view returns(string memory) {\n        return string(abi.encodePacked(abi.encodePacked(_uriPrefix, Bytes.uint2str(id))));\n    }\n\n/////////////////////////////////////////// IPFS migration ///////////////////////////////////\n\n    /**\n     * @dev Sets IPFS migration flag true\n     */\n    function migrateToIPFS() public onlyMinter {\n        _ipfsMigrated = true;\n    }\n\n/////////////////////////////////////////// ERC1155MetadataURI ///////////////////////////////////\n\n    /**\n     * @dev Returns an URI for a given ID\n     * @param id uint256 ID of the tokenId / collectionId to query\n     * @return string URI of given ID\n     */\n    function uri(uint256 id) public view returns(string memory) {\n        if (uint256(_uris[id]) == 0) {\n            return _fullUriFromId(id);\n        }\n\n        return _fullUriFromHash(_uris[id]);\n    }\n\n/////////////////////////////////////////// ERC721Metadata ///////////////////////////////////\n\n    /**\n     * @dev Gets the token name\n     * @return string representing the token name\n     */\n    function name() external view returns(string memory) {\n        return \"F1 Delta Time Inventory\";\n    }\n\n    /**\n     * @dev Gets the token symbol\n     * @return string representing the token symbol\n     */\n    function symbol() external view returns(string memory) {\n        return \"F1DTI\";\n    }\n\n    /**\n     * @dev Returns an URI for a given token ID\n     * Throws if the token ID does not exist. May return an empty string.\n     * @param tokenId uint256 ID of the token to query\n     * @return string URI of given token ID\n     */\n    function tokenURI(uint256 tokenId) external view returns (string memory) {\n        require(exists(tokenId));\n        return uri(tokenId);\n    }\n}",
  "sourcePath": "/Users/nathan/Workspace/animoca/f1dt/contracts_and_tokens_management/contracts/token/ERC1155721/DeltaTimeInventory.sol",
  "compiler": {
    "name": "solc",
    "version": "0.5.16+commit.9c3226ce.Emscripten.clang"
  },
  "schemaVersion": "3.0.23",
  "updatedAt": "2020-07-01T10:29:36.397Z",
  "devdoc": {
    "methods": {
      "acceptRelayedCall(address,address,bytes,uint256,uint256,uint256,uint256,bytes,uint256)": {
        "details": "Ensures that only users with enough gas payment token balance can have transactions relayed through the GSN."
      },
      "batchMint(address[],uint256[],bytes32[],uint256[],bool)": {
        "details": "Public function to mint a batch of new tokens Reverts if some the given token IDs already exist",
        "params": {
          "ids": "uint256[] List of ids of the tokens to be minted",
          "to": "address[] List of addresses that will own the minted tokens",
          "uris": "bytes32[] Concatenated metadata URIs of nfts to be minted",
          "values": "uint256[] List of quantities of ft to be minted"
        }
      },
      "constructor": {
        "details": "Constructor32 DeltaTimeInventory collection type length"
      },
      "createCollection(uint256,bytes32)": {
        "details": "This function creates the collection id.",
        "params": {
          "collectionId": "collection without fungible/non-fungible identifier"
        },
        "return": "uint256 collectionId to create"
      },
      "exists(uint256)": {
        "details": "Returns whether the NFT belongs to someone",
        "params": {
          "id": "uint256 ID of the NFT"
        },
        "return": "whether the NFT belongs to someone"
      },
      "getHubAddr()": {
        "details": "Returns the address of the {IRelayHub} contract for this recipient."
      },
      "isFungible(uint256)": {
        "details": "Tells whether an id represents a fungible collection",
        "params": {
          "id": "The ID to query"
        },
        "return": "bool whether the given id is fungible"
      },
      "isOwner()": {
        "details": "Returns true if the caller is the current owner."
      },
      "migrateToIPFS()": {
        "details": "Sets IPFS migration flag true"
      },
      "mintFungible(address,uint256,uint256)": {
        "details": "Public function to mint fungible token Reverts if the given ID is not fungible collection ID",
        "params": {
          "collection": "uint256 ID of the fungible collection to be minted",
          "to": "address recipient that will own the minted tokens",
          "value": "uint256 amount to mint"
        }
      },
      "mintNonFungible(address,uint256,bytes32,bool)": {
        "details": "Public function to mint one non fungible token id Reverts if the given token ID is not non fungible token id",
        "params": {
          "byteUri": "bytes32 Concatenated metadata URI of nft to be minted",
          "to": "address recipient that will own the minted tokens",
          "tokenId": "uint256 ID of the token to be minted"
        }
      },
      "name()": {
        "details": "Gets the token name",
        "return": "string representing the token name"
      },
      "owner()": {
        "details": "Returns the address of the current owner."
      },
      "pause()": {
        "details": "Called by a pauser to pause, triggers stopped state."
      },
      "paused()": {
        "details": "Returns true if the contract is paused, and false otherwise."
      },
      "postRelayedCall(bytes,bool,uint256,bytes32)": {
        "details": "See `IRelayRecipient.postRelayedCall`.     * This function should not be overriden directly, use `_postRelayedCall` instead.     * * Requirements:     * - the caller must be the `RelayHub` contract."
      },
      "preRelayedCall(bytes)": {
        "details": "See `IRelayRecipient.preRelayedCall`.     * This function should not be overriden directly, use `_preRelayedCall` instead.     * * Requirements:     * - the caller must be the `RelayHub` contract."
      },
      "relayHubVersion()": {
        "details": "Returns the version string of the {IRelayHub} for which this recipient implementation was built. If {_upgradeRelayHub} is used, the new {IRelayHub} instance should be compatible with this version."
      },
      "renounceOwnership()": {
        "details": "Leaves the contract without owner. It will not be possible to call `onlyOwner` functions anymore. Can only be called by the current owner.     * NOTE: Renouncing ownership will leave the contract without an owner, thereby removing any functionality that is only available to the owner."
      },
      "setIPFSUriPrefix(string)": {
        "details": "Public function to update the metadata IPFS URI prefix",
        "params": {
          "ipfsUriPrefix": "string the new IPFS URI prefix"
        }
      },
      "setURI(uint256,bytes32)": {
        "details": "Public function to set the URI for a given ID Reverts if the ID does not exist or metadata has migrated to IPFS",
        "params": {
          "byteUri": "bytes32 URI to assign",
          "id": "uint256 ID to set its URI"
        }
      },
      "setUriPrefix(string)": {
        "details": "Public function to update the metadata URI prefix",
        "params": {
          "uriPrefix": "string the new URI prefix"
        }
      },
      "supportsInterface(bytes4)": {
        "details": "Check if support an interface id",
        "params": {
          "interfaceId": "interface id to query"
        },
        "return": "bool if support the given interface id"
      },
      "symbol()": {
        "details": "Gets the token symbol",
        "return": "string representing the token symbol"
      },
      "tokenURI(uint256)": {
        "details": "Returns an URI for a given token ID Throws if the token ID does not exist. May return an empty string.",
        "params": {
          "tokenId": "uint256 ID of the token to query"
        },
        "return": "string URI of given token ID"
      },
      "transferOwnership(address)": {
        "details": "Transfers ownership of the contract to a new account (`newOwner`). Can only be called by the current owner."
      },
      "unpause()": {
        "details": "Called by a pauser to unpause, returns to normal state."
      },
      "uri(uint256)": {
        "details": "Returns an URI for a given ID",
        "params": {
          "id": "uint256 ID of the tokenId / collectionId to query"
        },
        "return": "string URI of given ID"
      },
      "withdrawDeposits(uint256,address)": {
        "details": "Withdraws the recipient's deposits in `RelayHub`."
      }
    },
    "title": "F1 Delta Time Inventory Contract"
  },
  "userdoc": {
    "methods": {
      "approve(address,uint256)": {
        "notice": "//////////////////////////////////////// ERC721 /////////////////////////////////////////////"
      },
      "balanceOf(address)": {
        "notice": "//////////////////////////////////////// ERC721 /////////////////////////////////////////////"
      },
      "collectionOf(uint256)": {
        "notice": "//////////////////////////////////////// ERC1155AssetCollections /////////////////////////////////////////////"
      },
      "safeTransferFrom(address,address,uint256,uint256,bytes)": {
        "notice": "//////////////////////////////////////// ERC1155 /////////////////////////////////////////////"
      }
    }
  }
}